:020000040000fa
:080000000002040000000000f2
:020000040000fa
:04000800760300007b
:020000040000fa
:04000c00f4020000fa
:020000040000fa
:0400100036030000b3
:020000040000fa
:0400140014030000d1
:020000040000fa
:04001800560300008b
:020000040000fa
:04001c007603000067
:020000040000fa
:040020007603000063
:020000040000fa
:04002400760300005f
:020000040000fa
:04002800760300005b
:020000040000fa
:04002c007603000057
:020000040000fa
:040030007603000053
:020000040000fa
:04003400760300004f
:020000040000fa
:04003800760300004b
:020000040000fa
:04003c007603000047
:020000040000fa
:040040007603000043
:020000040000fa
:04004400760300003f
:020000040000fa
:04004800760300003b
:020000040000fa
:04004c007603000037
:020000040000fa
:040050007603000033
:020000040000fa
:04005400760300002f
:020000040000fa
:04005800760300002b
:020000040000fa
:04005c007603000027
:020000040000fa
:040060007603000023
:020000040000fa
:04006400760300001f
:020000040000fa
:04006800760300001b
:020000040000fa
:04006c007603000017
:020000040000fa
:040070007603000013
:020000040000fa
:04007400760300000f
:020000040000fa
:04007800760300000b
:020000040000fa
:04007c007603000007
:020000040000fa
:040080007603000003
:020000040000fa
:0400840076030000ff
:020000040000fa
:0400880076030000fb
:020000040000fa
:04008c0076030000f7
:020000040000fa
:0400900076030000f3
:020000040000fa
:0400940076030000ef
:020000040000fa
:0400980076030000eb
:020000040000fa
:04009c0076030000e7
:020000040000fa
:0400a00076030000e3
:020000040000fa
:0400a40076030000df
:020000040000fa
:0400a80076030000db
:020000040000fa
:0400ac0076030000d7
:020000040000fa
:0400b00076030000d3
:020000040000fa
:0400b40076030000cf
:020000040000fa
:0400b80076030000cb
:020000040000fa
:0400bc0076030000c7
:020000040000fa
:0400c00076030000c3
:020000040000fa
:0400c40076030000bf
:020000040000fa
:0400c80076030000bb
:020000040000fa
:0400cc0076030000b7
:020000040000fa
:0400d00076030000b3
:020000040000fa
:0400d40076030000af
:020000040000fa
:0400d80076030000ab
:020000040000fa
:0400dc0076030000a7
:020000040000fa
:0400e00076030000a3
:020000040000fa
:0400e400760300009f
:020000040000fa
:0400e800760300009b
:020000040000fa
:0400ec007603000097
:020000040000fa
:0400f0007603000093
:020000040000fa
:0400f400760300008f
:020000040000fa
:0400f800760300008b
:020000040000fa
:0400fc007603000087
:020000040000fa
:040100007603000082
:020000040000fa
:04010400760300007e
:020000040000fa
:04010800760300007a
:020000040000fa
:04010c007603000076
:020000040000fa
:040110007603000072
:020000040000fa
:04011400760300006e
:020000040000fa
:04011800760300006a
:020000040000fa
:04011c007603000066
:020000040000fa
:040120007603000062
:020000040000fa
:04012400760300005e
:020000040000fa
:04012800760300005a
:020000040000fa
:04012c007603000056
:020000040000fa
:040130007603000052
:020000040000fa
:04013400760300004e
:020000040000fa
:04013800760300004a
:020000040000fa
:04013c007603000046
:020000040000fa
:040140007603000042
:020000040000fa
:04014400760300003e
:020000040000fa
:04014800760300003a
:020000040000fa
:040208007603000079
:020000040000fa
:04020c00f4020000f8
:020000040000fa
:0402100036030000b1
:020000040000fa
:0402140014030000cf
:020000040000fa
:040218005603000089
:020000040000fa
:04021c007603000065
:020000040000fa
:040220007603000061
:020000040000fa
:04022400760300005d
:020000040000fa
:040228007603000059
:020000040000fa
:04022c007603000055
:020000040000fa
:040230007603000051
:020000040000fa
:04023400760300004d
:020000040000fa
:040238007603000049
:020000040000fa
:04023c007603000045
:020000040000fa
:040240007603000041
:020000040000fa
:04024400760300003d
:020000040000fa
:040248007603000039
:020000040000fa
:04024c007603000035
:020000040000fa
:040250007603000031
:020000040000fa
:04025400760300002d
:020000040000fa
:040258007603000029
:020000040000fa
:04025c007603000025
:020000040000fa
:040260007603000021
:020000040000fa
:04026400760300001d
:020000040000fa
:040268007603000019
:020000040000fa
:04026c007603000015
:020000040000fa
:040270007603000011
:020000040000fa
:04027400760300000d
:020000040000fa
:040278007603000009
:020000040000fa
:04027c007603000005
:020000040000fa
:040280007603000001
:020000040000fa
:0402840076030000fd
:020000040000fa
:0402880076030000f9
:020000040000fa
:04028c0076030000f5
:020000040000fa
:0402900076030000f1
:020000040000fa
:0402940076030000ed
:020000040000fa
:0402980076030000e9
:020000040000fa
:04029c0076030000e5
:020000040000fa
:0402a00076030000e1
:020000040000fa
:0402a40076030000dd
:020000040000fa
:0402a80076030000d9
:020000040000fa
:0402ac0076030000d5
:020000040000fa
:0402b00076030000d1
:020000040000fa
:0402b40076030000cd
:020000040000fa
:0402b80076030000c9
:020000040000fa
:0402bc0076030000c5
:020000040000fa
:0402c00076030000c1
:020000040000fa
:0402c40076030000bd
:020000040000fa
:0402c80076030000b9
:020000040000fa
:0402cc0076030000b5
:020000040000fa
:0402d00076030000b1
:020000040000fa
:0402d40076030000ad
:020000040000fa
:0402d80076030000a9
:020000040000fa
:0402dc0076030000a5
:020000040000fa
:0402e00076030000a1
:020000040000fa
:0402e400760300009d
:020000040000fa
:0402e8007603000099
:020000040000fa
:0402ec007603000095
:020000040000fa
:0402f0007603000091
:020000040000fa
:0402f400760300008d
:020000040000fa
:0402f8007603000089
:020000040000fa
:0402fc007603000085
:020000040000fa
:040300007603000080
:020000040000fa
:04030400760300007c
:020000040000fa
:040308007603000078
:020000040000fa
:04030c007603000074
:020000040000fa
:040310007603000070
:020000040000fa
:04031400760300006c
:020000040000fa
:040318007603000068
:020000040000fa
:04031c007603000064
:020000040000fa
:040320007603000060
:020000040000fa
:04032400760300005c
:020000040000fa
:040328007603000058
:020000040000fa
:04032c007603000054
:020000040000fa
:040330007603000050
:020000040000fa
:04033400760300004c
:020000040000fa
:040338007603000048
:020000040000fa
:04033c007603000044
:020000040000fa
:040340007603000040
:020000040000fa
:04034400760300003c
:020000040000fa
:040348007603000038
:020000040000fa
:10040000ef0d21000e7f22000e0188000000000089
:10041000000020000000e000020032000001200087
:100420002002880014000700b20007000000e0006e
:1004300003003a00209c2900010020000200370040
:100440000000200001002000810f70000100320038
:1004500014000700000020000000e000020032004d
:100460000000020000000000649a0200000000008a
:100470000040da000000fe004440a900a05c20001b
:100480000000e0000300320000002000a00188000e
:100490004440a800000006008a1f78008b1f7800e7
:1004a0000000060091018800800478000000eb0045
:1004b0001a003700e284440032a0b4009905ba0063
:1004c000e284440032a0b4009906ba00e2844400f9
:1004d00032a0b4000006eb00476fde00fd07b2005b
:1004e000636ce10003003a00ebff07000000eb0043
:1004f0000a003700606ce10004003a00005deb0088
:100500008b05e900fdff3e00040037006168e10053
:10051000010032000086eb000b00070019c7ba008b
:100520001905ba000e04e00003003a000a00e000da
:10053000e0ff3a0000000600fe07b2009e018800be
:100540008a047800f5ff3700395dba008b05e900b1
:100550000c003200295dba008b05e900080032006a
:100560000c00e00003003a00e284440032a0b40032
:10057000f5ff370019ddba008b05e900faff3a00f4
:100580008904e800e184440032a0b40000000600c1
:10059000000000000000000000000000000000005b
:1005a000000000000000000000000000000000004b
:1005b000000000000000000000000000000000003b
:1005c000000000000000000000000000000000002b
:1005d000000000000000000000000000000000001b
:1005e00000000000000000003600f800809fbe0000
:1005f000829fbe00849fbe00869fbe000000fa005e
:100600008020a9000000eb00c54b07000080fa0025
:100610004f03be004f02be004f01be004f00be00a0
:100620003600f900004006003600f800809fbe004a
:10063000829fbe00849fbe00869fbe000000fa001d
:10064000be4b07008040a90010002000b44b0700fb
:100650000080fa004f03be004f02be004f01be00f3
:100660004f00be003600f900004006003600f800da
:10067000809fbe00829fbe00849fbe00869fbe00fa
:100680000000fa008060a90020002000a44b0700b1
:100690000080fa004f03be004f02be004f01be00b3
:1006a0004f00be003600f900004006003600f8009a
:1006b000809fbe00829fbe00849fbe00869fbe00ba
:1006c0000000fa008080a90030002000944b070051
:1006d0000080fa004f03be004f02be004f01be0073
:1006e0004f00be003600f900004006000040da006e
:1006f0000000fe00000005006022b8000602200095
:100700000000d0008180d2000482d2008582d20015
:100710000000a0000202520083825a000300310050
:100720000202420083824a000000a1000603e900a1
:10073000f3ff3a0000000600efff07000400be00d0
:1007400000000600889fbe008a9fbe003004420061
:10075000b0844a0030054b0090854b006000b1002a
:100760000898be000a90be000440e10005c8e10000
:1007700006d0e10007d8e100020031006800400027
:100780001008e8004f05be004f04be000000060040
:10079000889fbe008a9fbe003004be002005be00b8
:1007a0000418540005985c0006185d0007985d0069
:1007b000110020000440e10005c8e10006d0e1007e
:1007c00007d8e100010039008000eb00108810001c
:1007d0004f05be004f04be00000006001200fa00e4
:1007e000889fbe008a9fbe008c9fbe00e0b79f001e
:1007f000f1b79f0082bf9f0093bf9f000605be0018
:100800000404be000000eb00d0b79f00c0b79f00fb
:10081000b0b79f00a0b79f0090b79f000006780078
:100820005fb19700cfb09700820141003fb09700c1
:100830000200e00004003d00370007007e80570002
:10084000c0ff070003003700330007007e80570019
:10085000cfff0700dfb697000d00e0000c00350069
:100860006fb29700ffb297000fbb97009fbb970036
:1008700010002000010020006011b800000272008a
:100880008182720002037300838373001b000700e0
:100890000c06e80001042000810f5600e0ff3a003a
:1008a0000d00e00004003d000802be000a03be0087
:1008b0007e805700a3ff07005fa897000000e000bc
:1008c00005003a001fb29700afb297003fb3970000
:1008d000cfb39700090007006fb09700ffb09700f3
:1008e0000fb997009fb997004f06be004f05be0095
:1008f0004f04be000080fa0000000600010007005f
:1009000000000600a4b79f00b5b79f00c6b79f00c0
:10091000d7b79f00000006004f09de0082817100fa
:10092000b3b79f004f01de008180400082807000dd
:10093000a1b79f008fb097004f09de000000400074
:100940000200700090b79f007fa897004f01de0063
:10095000818040008280700081b79f000d000700f9
:100960004f3ade000000400004007000f0af9f002e
:10097000080007000402420085824a0006034b007b
:1009800087834b00dfff07000802be000a03be009a
:10099000000006002fb29700bfb297004fb3970038
:1009a000dfb3970000000600881f780018002000c1
:1009b000881f780089ff07008f87e9004f047800bf
:1009c00000000600801feb0084ff07008f87e9000e
:1009d00000000600889fbe008a9fbe00e00f500006
:1009e000e08f5800e00f5900e08f59000c003d00e7
:1009f0006044b8006055b8000000540081805c007d
:100a000002015d0083815d001800200015000700d1
:100a100008003d00180007000004eb000500370047
:100a20000004eb000f00070002003d001200070069
:100a300018002000dcff07000800e000060032007c
:100a40006022b8006033b8000000520081805a0074
:100a500002015b0083815b004f05be004f04be00b6
:100a600000000600e00f5200e08f5a00e00f5b002c
:100a7000e08f5b00000006006044b8006055b800dd
:100a80000402540085825c0006035d0087835d00dc
:100a900000000600889fbe008a9fbe008c1f780061
:100aa000e00f5000e08f5800e00f5900e08f590030
:100ab0000d003d006044b8006055b80000005400cf
:100ac00081805c0002015d0083815d001c002000cc
:100ad0000820e10009a8e1000ab0e1000bb8e1003c
:100ae0000d003d00080037000006eb00e00f52004b
:100af000e08f5a00e00f5b00e08f5b0006003d00d6
:100b00006044b8006055b8000402540085825c005f
:100b100006035d0087835d00aaff07000c00e0006c
:100b2000060032006022b8006033b80000005200b6
:100b300081805a0002015b0083815b004f067800d0
:100b40004f05be004f04be00000006008001780083
:100b500002003700b15978000201e9000200e0000c
:100b6000fcff3a0000000600889fbe008a9fbe007e
:100b7000800478000200e0005b0032000140780051
:100b8000814c780082814400f1f99f00e20f51000e
:100b90005500360091449800a1449800e1f99f0067
:100ba000d1f99f00e60f51004f003600b144980084
:100bb000c1f99f00e80f51004b0036000905ea001b
:100bc000630565000a8444000a055100c1ff2f0037
:100bd000010565000080fb008000eb001210200082
:100be0001310200044000700008cbe000a014400de
:100bf00060b99f0071b99f00e80f55003a003600b8
:100c00002004980031049800400498005104980092
:100c100020b99f0031b99f0040b99f0051b99f0092
:100c2000f80f5500300036006004980071049800f9
:100c3000000c9800110c9800200c9800310c9800c2
:100c4000400c9800510c980020b19f0031b19f00da
:100c500040b19f0051b19f0060b19f0071b19f00f2
:100c600000b99f0011b99f00640164007801410040
:100c700002044400020555006011b8000203be00e2
:100c80000002be000403be006022b8000000720033
:100c900081807200020173008381730010003700ad
:100ca000009cbe000294be004004980051049800cd
:100cb0006204980073049800000c9800110c9800ce
:100cc000220c9800330c9800400c9800510c9800ae
:100cd000620c9800730c98000a02b1000802b00080
:100ce000ff0f5500eeff3e00090078004f05be00e3
:100cf0004f04be0000000600020ab900001bb90044
:100d00000200b8008100420081004300000006009c
:020000040000fa
:100d1000c7000000fc000000e9000000e200000045
:100d2000e4000000e0000000e5000000e700000033
:100d3000ea000000eb000000e8000000ef00000007
:100d4000ee000000ec000000c4000000c500000040
:100d5000c9000000e6000000c6000000f40000002a
:100d6000f6000000f2000000fb000000f9000000a7
:100d7000ff000000d6000000dc000000a200000020
:100d8000a3000000a5000000a720000092010000c1
:100d9000e1000000ed000000f3000000fa00000098
:100da000f1000000d1000000aa000000ba0000001d
:100db000bf00000010230000ac000000bd000000d8
:100dc000bc000000a1000000ab000000bb00000060
:100dd00091250000922500009325000002250000c7
:100de0002425000061250000622500005625000032
:100df00055250000632500005125000057250000ff
:100e00005d2500005c2500005b250000102500002a
:100e100014250000342500002c2500001c250000ae
:100e2000002500003c2500005e2500005f25000035
:100e30005a250000542500006925000066250000a1
:100e400060250000502500006c250000672500008b
:100e50006825000064250000652500005925000074
:100e60005825000052250000532500006b25000086
:100e70006a250000182500000c25000088250000c8
:100e8000842500008c2500009025000080250000ae
:100e9000b1030000df00000093030000c003000066
:100ea000a3030000c3030000b5000000c40300005a
:100eb000a603000098030000a9030000b40300008b
:100ec0001e220000c6030000b50300002922000016
:100ed00061220000b10000006522000064220000d1
:100ee0002023000021230000f7000000482200001a
:100ef000b000000019220000b70000001a22000014
:100f00007f200000b2000000a0250000a00000002b
:100f1000610000001a030000e00000001703000059
:100f2000f800000007030000ff00000001000000bf
:100f300078010000000100003001000032010000d3
:100f40000601000039010000100100004a01000004
:100f50002e01000079010000060100008001000060
:100f60004d000000430200008101000082010000ea
:100f7000820100008401000084010000860100005d
:100f80008701000087010000890100008a0100003c
:100f90008b0100008b0100008d0100008e0100001c
:100fa0008f010000900100009101000091010000fc
:100fb0009301000094010000f6010000960100007a
:100fc0009701000098010000980100003d02000018
:100fd0009b0100009c0100009d0100002002000018
:100fe0009f010000a0010000a0010000a20100007c
:100ff000a2010000a4010000a4010000a60100005d
:10100000a7010000a7010000a9010000aa0100003b
:10101000ab010000ac010000ac010000ae0100001b
:10102000af010000af010000b1010000b2010000fb
:10103000b3010000b3010000b5010000b5010000dc
:10104000b7010000b8010000b8010000ba010000bb
:10105000bb010000bc010000bc010000be0100009b
:10106000f7010000c0010000c1010000c201000042
:10107000c3010000c4010000c5010000c40100005c
:10108000c7010000c8010000c7010000ca0100003c
:10109000cb010000ca010000cd01000010010000da
:1010a000dd010000010000008e010000de010000f3
:1010b00012010000f301000003000000f101000034
:1010c000f4010000f4010000f80100002801000014
:1010d00022020000120100003a0200000900000094
:1010e000652c00003b0200003b0200003d020000b6
:1010f000662c00003f020000400200004102000098
:1011000041020000460200000a01000053020000f4
:10111000400000008101000086010000550200002f
:10112000890100008a010000580200008f010000c0
:101130005a020000900100005c0200005d02000005
:101140005e0200005f0200009301000061020000e7
:1011500062020000940100006402000065020000c9
:10116000660200006702000097010000960100007f
:101170006a020000622c00006c0200006d02000098
:101180006e0200009c01000070020000710200006d
:101190009d01000073020000740200009f01000026
:1011a0007602000077020000780200007902000059
:1011b0007a0200007b0200007c020000642c000028
:1011c0007e0200007f020000a601000081020000f4
:1011d00082020000a90100008402000085020000d4
:1011e0008602000087020000ae01000044020000f9
:1011f000b1010000b2010000450200008d020000b4
:101200008e0200008f020000900200009102000098
:10121000b70100007b03000003000000fd03000095
:10122000fe030000ff030000ac0300000400000008
:101230008603000088030000890300008a03000081
:10124000b103000011030000c2030000020000000f
:10125000a3030000a3030000c40300000803000070
:10126000cc030000030000008c0300008e0300008c
:101270008f030000d803000018010000f2030000f3
:101280000a000000f9030000f3030000f40300006b
:10129000f5030000f6030000f7030000f703000069
:1012a000f9030000fa030000fa0300003004000014
:1012b000200300005004000010070000600400003c
:1012c000220100008a04000036010000c104000071
:1012d0000e010000cf04000001000000c004000067
:1012e000d004000044010000610500002604000055
:1012f000000000007d1d000001000000632c0000c4
:10130000001e000096010000a01e00005a0100000f
:10131000001f000008060000101f00000606000065
:10132000201f000008060000301f00000806000013
:10133000401f000006060000511f000007000000cb
:10134000591f0000521f00005b1f0000541f0000c7
:101350005d1f0000561f00005f1f0000601f00009f
:1013600008060000701f00000e000000ba1f0000f9
:10137000bb1f0000c81f0000c91f0000ca1f0000db
:10138000cb1f0000da1f0000db1f0000f81f000069
:10139000f91f0000ea1f0000eb1f0000fa1f000009
:1013a000fb1f0000801f000008060000901f0000c7
:1013b00008060000a01f000008060000b01f000083
:1013c00004000000b81f0000b91f0000b21f000099
:1013d000bc1f0000cc1f000001000000c31f000064
:1013e000d01f000002060000e01f000002060000ff
:1013f000e51f000001000000ec1f0000f31f0000cb
:1014000001000000fc1f00004e2100000100000050
:101410003221000070210000100200008421000031
:101420000100000083210000d02400001a05000004
:10143000302c00002f040000602c0000020100008e
:10144000672c000006010000752c0000020100005e
:10145000802c000064010000002d00002608000020
:1014600041ff00001a03000000000000010300001b
:1014700005070000090e00001012000014160000fd
:10148000181c00001e8000009a450000418e0000dc
:10149000418f00008045000045450000494900009b
:1014a000498e00008f900000929200004f9900003a
:1014b0004f55000055590000999a00009b9c000070
:1014c0009d9e00009f410000494f000055a500006f
:1014d000a5a60000a7a80000a9aa0000abac0000c8
:1014e000adae0000afb00000b1b20000b3b4000078
:1014f000b5b60000b7b80000b9ba0000bbbc000028
:10150000bdbe0000bfc00000c1c20000c3c40000d7
:10151000c5c60000c7c80000c9ca0000cbcc000087
:10152000cdce0000cfd00000d1d20000d3d4000037
:10153000d5d60000d7d80000d9da0000dbdc0000e7
:10154000ddde0000dfe00000e1e20000e3e4000097
:10155000e5e60000e7e80000e9ea0000ebec000047
:10156000edee0000eff00000f1f20000f3f40000f7
:10157000f5f60000f7f80000f9fa0000fbfc0000a7
:10158000fdfe0000ff2200002a3a00003c3e000061
:101590003f7c00007f0000002b2c00003b3d000042
:1015a0005b5d000000eb00007690000045580000f5
:1015b00046410000542000002020000000460000aa
:1015c0004154000000460000415400003332000046
:1015d00000eb0000fe9000004d530000444f00005f
:1015e000533500002e300000004e00004f20000058
:1015f0004e4100004d45000020200000202000004a
:10160000464100005433000032200000202000003a
:10161000004e00004f2000004e4100004d450000ec
:10162000202000002020000046410000542000003f
:101630002020000020200000000000000100000029
:10164000020000000400000008000000100000007c
:101650002000000000000000010000000400000065
:101660001000000040000000000100000002000027
:10167000000000002b2e00002c3b00003d5b000012
:101680005d2f00005c2200002a3a00003c3e000072
:101690003f7c00007f00000000000000950000007b
:1016a000000000000000000001000000f900000040
:1016b000000000000000000008000000870000009b
:1016c000040000000000000009000000af0000005e
:1016d00000000000010000000a0000001b000000e4
:1016e00000000000010000000c000000c30000002a
:1016f00001000000000000000d000000af0000002d
:10170000020000000000000010000000ff000000c8
:10171000000000000000000011000000ff000000b9
:10172000000000000100000012000000ff000000a7
:10173000000000000100000018000000ff00000091
:10174000000000000100000019000000ff00000080
:10175000000000000100000020000000ff00000069
:10176000000000000000000021000000ff00000059
:10177000000000000000000026000000df00000064
:1017800001000000000000003700000073000000ae
:1017900000000000000000003a00000025000000ea
:1017a00004000000000000003b00000025000000d5
:1017b000000000000000000029000000ff00000001
:1017c000040000000000000017000000ff000000ff
:1017d0000000000000000000ca960000049a00000b
:1017e000309700004a9700007c970000aa970000fd
:1017f000da970000e69700000c980000f0970000d0
:10180000ca9600000e9a0000309700004a97000028
:101810007c970000aa970000da970000e697000086
:101820000c980000f0970000303a000000480000db
:10183000454c00004c4f00002e540000585400004e
:1018400000480000656c00006c6f0000205700002d
:101850006f7200006c640000210000007b0000003b
:101860000000000000000000000000007500000003
:101870000000000000000000000000003201000035
:101880000000000000000000000000000048000010
:10189000454c00004c4f00002e54000058540000ee
:0418a0000000000044
:020000040000fa
:1018a4000400fa00100798001e0090000000e800f1
:1018b400104078000080fb00000f78001e007800c4
:1018c400c800dd001e009000104078000080fb007e
:1018d400008f70001e0078000080fa0000000600ef
:1018e4000600fa00200798002e00900063004000d4
:1018f400104078000080fb008000eb00008fbe00e9
:101904001e00be004809dd00c801de00830171002d
:101914004801dd002e0090000080e80010407800af
:101924000080fb008000eb00001f71000197710034
:101934001e00be004809dd00c801de0083017100fd
:101944004801dd002e0090000000e80010407800ff
:101954000080fb008000eb00001f71000197710004
:101964001e00be004809dd00c801de0083017100cd
:101974004801dd002e009000104078000080fb003c
:101984008000eb00001f7100019771001e00be0073
:101994000080fa00000006000a00fa00881f7800a0
:1019a400400798004e009000670040001040780007
:1019b4000080fb008000eb006011b800009fbe00b7
:1019c4000297be003e00be002e01be000203be0010
:1019d4000002be00c83bdd004834de00870374000b
:1019e4004833dd00482cde0006037400c82add00fd
:1019f4004824de00850274004822dd004e00900079
:101a040066004000104078000080fb008000eb007e
:101a14006011b800001f7200019f7200021f730062
:101a2400038f73006e00b1003e00be002e01be00a5
:101a34000203be000002be00c83bdd004834de00e5
:101a4400870374004833dd00482cde00060374006d
:101a5400c82add004824de00850274004822dd0027
:101a64004e00900065004000104078000080fb00ac
:101a74008000eb006011b800001f7200019f72002b
:101a8400021f7300038f73006e00b1003e00be009e
:101a94002e01be000203be000002be00c83bdd00f2
:101aa4004834de00870374004833dd00482cde0030
:101ab40006037400c82add004824de008502740091
:101ac4004822dd004e009000640040001040780081
:101ad4000080fb008000eb006011b800001f720062
:101ae400019f7200021f7300038f73006e00b10028
:101af4003e00be002e01be000203be000002be0076
:101b0400c83bdd004834de00870374004833dd0041
:101b1400482cde0006037400c82add004824de00d9
:101b2400850274004822dd004e00900063004000ee
:101b3400104078000080fb008000eb006011b800ca
:101b4400001f7200019f7200021f7300038f730055
:101b54006e00b1003e00be002e01be000203be00b6
:101b64000002be00c83bdd004834de008703740079
:101b74004833dd00482cde0006037400c82add006b
:101b84004824de00850274004822dd004e009000e7
:101b94000080e800104078000080fb008000eb002b
:101ba4006011b800001f7200019f7200021f7300d1
:101bb400038f73006e00b1003e00be002e01be0014
:101bc4000203be000002be00c83bdd004834de0054
:101bd400870374004833dd00482cde0006037400dc
:101be400c82add004824de00850274004822dd0096
:101bf4004e0090000000e800104078000080fb00d8
:101c04008000eb006011b800001f7200019f720099
:101c1400021f7300038f73006e00b1003e00be000c
:101c24002e01be000203be000002be00c83bdd0060
:101c34004834de00870374004833dd00482cde009e
:101c440006037400c82add004824de0085027400ff
:101c54004822dd004e009000104078000080fb0018
:101c64008000eb006011b800001f7200019f720039
:101c7400021f7300038f73006e00b1003e00be00ac
:101c84002e01be004f0478000080fa000000060018
:101c94000400fa00000f7800110798001e0090005d
:101ca400804078001e007800014878001e0fe8008c
:101cb4001e0090004800de00100798001e009000ef
:101cc400804078001e007800014878001e0fe8006c
:101cd4000080fa00000006000600fa00000f7800f9
:101ce40012079800230798001e0090008040780097
:101cf4001e007800014878001e0fe8001e009000c6
:101d0400ae0090004809dd004800de0000007100cc
:101d1400c808de0010079800210798001e009000f4
:101d2400804078001e007800014878001e0fe8000b
:101d34001e009000ae0090004809dd004800de005f
:101d440000007100c808de00100798002107980001
:101d54001e009000804078001e0078000148780042
:101d64001e0fe8001e009000ae0090004809dd0040
:101d74004800de0000007100c808de00100798006b
:101d8400210798001e009000804078001e00780013
:101d9400014878001e0fe8000080fa0000000600e9
:101da4000a00fa00000f780014079800250798002d
:101db40036079800470798001e009000804078007e
:101dc4001e007800014878001e0fe8001e009000f5
:101dd400ae0090003e019000ce0190004800de006d
:101de400480add0000007200c808de004812dd0069
:101df400810072004811de00481add000201720001
:101e0400c819de00100798002107980032079800cf
:101e1400430798001e009000804078001e00780060
:101e2400014878001e0fe8001e009000ae009000ec
:101e34003e019000ce0190004800de00480add001b
:101e440000007200c808de004812dd008100720044
:101e54004811de00481add0002017200c819de00d4
:101e6400100798002107980032079800430798004c
:101e74001e009000804078001e0078000148780021
:101e84001e0fe8001e009000ae0090003e0190007e
:101e9400ce0190004800de00480add000000720018
:101ea400c808de004812dd00810072004811de001f
:101eb400481add0002017200c819de0010079800fc
:101ec4002107980032079800430798001e009000ed
:101ed400804078001e007800014878001e0fe8005a
:101ee4001e009000ae0090003e019000ce019000d4
:101ef4004800de00480add0000007200c808de0069
:101f04004812dd00810072004811de00481add002d
:101f140002017200c819de0010079800210798001a
:101f240032079800430798001e0090008040780014
:101f34001e007800014878001e0fe8001e00900083
:101f4400ae0090003e019000ce0190004800de00fb
:101f5400480add0000007200c808de004812dd00f7
:101f6400810072004811de00481add00020172008f
:101f7400c819de001007980021079800320798005e
:101f8400430798001e009000804078001e007800ef
:101f9400014878001e0fe8001e009000ae0090007b
:101fa4003e019000ce0190004800de00480add00aa
:101fb40000007200c808de004812dd0081007200d3
:101fc4004811de00481add0002017200c819de0063
:101fd40010079800210798003207980043079800db
:101fe4001e009000804078001e00780001487800b0
:101ff4001e0fe8001e009000ae0090003e0190000d
:10200400ce0190004800de00480add0000007200a6
:10201400c808de004812dd00810072004811de00ad
:10202400481add0002017200c819de00100798008a
:102034002107980032079800430798001e0090007b
:10204400804078001e007800014878001e0fe800e8
:102054000080fa00000006000a00fa002007980039
:102064003107980042079800ae009000010f7800f5
:10207400be009000110798004e0090000000e000a0
:102084000e0032001e009000904078001e00780080
:10209400014878001e0fe8001e0090000000e800d0
:1020a400100798004e0090000000e90040079800d7
:1020b4004e0090000000e000f2ff3a000080fa00b9
:1020c400000006000800fa00100798002107980095
:1020d400320798009e009000010f78002e009000b7
:1020e400804078001e007800014878001e0fe80048
:1020f4003e0090000000e900300798003e00900088
:102104000000e000f5ff3a000080fa00000006003d
:102114000c00fa0030079800410798005207980015
:10212400be009000010f7800ce00900011079800c7
:102134000000eb00200798001e0078001040780093
:102144008080fb001e009000104078000080fb009f
:1021540000805000200798001e0fe8001e00900029
:102164000000e800100798005e0090000000e900fd
:10217400500798005e0090000000e0000300320069
:102184002e0090000000e000ebff32002e009000d3
:102194000080fa00000006000400fa00000f780036
:1021a40011079800010037001e0fe8001e00780098
:1021b400104078000004e000060032001e007800a1
:1021c400104078008000fb001e009000808f5000bb
:1021d400f5ff3a001e007800104078000000fb0074
:1021e4000080fa00000006000200fa00004f7800a8
:1021f4001e4078000004e000020032000000eb0002
:10220400010037000000eb000080fa000000060027
:102214000200fa00004f78001e4078000004e0003d
:10222400020032000000eb00010037000000eb0068
:102234000080fa00000006000a00fa004007980037
:102244004e00900090007800210798002e00900026
:10225400100078008000eb00008fbe002e0090007c
:102264000080e80020079800f07f2d000100200086
:102274001e01be00800f5100818f59002a003600d4
:10228400f0ff2d00010020001e01be00800f510050
:10229400818f590024003e002e00900090007800a9
:1022a400310798002e0090000080e8002007980075
:1022b400f07f2d00010020001e01be00800f5100a0
:1022c400818f59000e003600f0bf2d000100200060
:1022d4001e01be00800f5100818f590008003e008e
:1022e400be009000f0bf2d00808f50000400360027
:1022f400be009000f0ff2d00808f500003003600d8
:102304000080eb008080eb000b0037001e00be0055
:10231400c001dd00020020003e0090008000eb00c0
:10232400001f7100019771004e009000ae009000f4
:10233400010878001e00be000080fa0000000600bc
:102344000c00fa0020079800310798004207980013
:10235400530798002e009000be0090004008de0055
:10236400000f7800ae009000110798001e0078005e
:102374000000e00012003a005e0090000000e0005f
:10238400080032009e009000f07f2d00808f5000e6
:10239400060036009e009000f0ff2d00808f500054
:1023a40002003e000040eb00260037004e00900083
:1023b4009e0090000108780010c0b300210037008f
:1023c4005e009000e10f500010003600f07f2d00f9
:1023d4009e007800808f50000c003600f0bf2d0066
:1023e4009e007800808f500008003e009e00900000
:1023f400f0bf2d00808f5000040036009e00900036
:10240400f0ff2d00808f5000020036000040eb00ea
:102414000c0037004e0090001e0878004e0090001b
:102424000080e800400798004e0090009e00900055
:10243400010878004e0090000080e80040079800f2
:1024440020c0b3000080fa00000006000400fa0077
:10245400100798000000eb00000f78001e009000a9
:10246400304090000004e000390032001e0090006b
:10247400a0209000102090001e019000660420000f
:10248400020343001e0190009242900014002000b9
:102494000001be0086007800054078003343070041
:1024a4000000e00028003a001e0090008040eb008d
:1024b400314098001e00900010219000a02190004f
:1024c4001e009000c01890003018900000015100c8
:1024d400818159001e0090008018900070109000b7
:1024e400800f5100818f5900190031001e009000a7
:1024f40020409000e24f500015003a001e0090006a
:1025040010219000a02190001e00900080189000df
:102514007010900002004000838048001e0190006b
:1025240066042000020343001e01900092429000c2
:10253400140020000001be008600780005407800e9
:102544000a4307000200370010002000000f780043
:102554001e0078000080fa00000006000800fa005f
:102564001007980022079800330798000000eb003a
:10257400000f78001e00900010219000a021900010
:102584002e009000be009000800f5100818f5900f2
:102594001c0032001e009000acff0700000f780002
:1025a4001e0078000000e00016003a001e009000b3
:1025b40061042000808040001e00900010409000c4
:1025c400140020002e019000be019000ca420700b2
:1025d4000000e000060032000080eb008080eb0089
:1025e400200798003107980010002000000f7800a1
:1025f4001e0090002e019000be0190001220980051
:10260400232098001e0078000080fa0000000600d5
:102614000400fa00100798001e0090008bff0700ca
:10262400000f78001e0078000000e00050003a001f
:102634001e00900010407800e34f500043003a0021
:102644001e00900040409000e14f50003f003a00cf
:102654001e009000e00090001e0090006004b00096
:10266400010178008000eb0096fe07001e00900038
:102674004024b00051a52a0085fd07001e009000eb
:102684006004b000222525001316240092fd0700e3
:102694001e009000a022b000222727001314260059
:1026a4008dfd07001e009000c008900030089000c7
:1026b4001e019000e4222000020242000001be003c
:1026c4000400780084fd07001e009000a00890001c
:1026d400100890001e0190002423200002024200f2
:1026e4000001be00040078007bfd07001e0090007e
:1026f400a01890001018900061004000e08048008d
:102704001e01900010219800212198001e009000c5
:10271400a0209000102090001e019000660420006c
:10272400020343001e019000924290001400200016
:102734000001be0086007800054078008b42070047
:102744001e0090008040eb00414098001e00900065
:10275400104090000001eb008040eb00a042070015
:102764000000e0000200320010002000000f78009a
:102774001e0078000080fa00000006000600fa003f
:10278400000f780012079800230798001e0090009d
:10279400ae00900062005000e080580010079800de
:1027a400210798001e007800e0109000501090005f
:1027b40062015000e08158001e009000ae009000bd
:1027c400800f5100818f590002003e006000b80064
:1027d400130037001e007800701a900080229000c9
:1027e4001e007800500090008000eb001e01900055
:1027f4000191b90002017800ae019000009bb9007c
:1028040086017800030141009e0190000018b80081
:1028140001014100820078000400400085804800e6
:102824000080fa00000006001800fa00889fbe002d
:102834008a9fbe008c9fbe00100f9800220f980044
:10284400330f98001e08900090007800210798002c
:102854002e099000be099000100020000100200005
:10286400800f5100818f5900080036002e0090001f
:1028740050119000e01190002e089000be089000c6
:10288400800f5100818f590004003e001000200089
:1028940001002000008fbe007c0137000080eb00a7
:1028a4008080eb00008fbe002e0090001040780066
:1028b4000080fb00e20f500069003200e20f50007c
:1028c40003003c00e10f50000600320062013700b3
:1028d400e30f500087003200e40f5000b6003200ce
:1028e4005d0137002e099000320798003e009000e9
:1028f4000000d100be009000008040003007980026
:102904002e00900030199000c01990002e00900005
:1029140060009000be0090000002780011000900e1
:102924008480d8008000eb000200400083804800cf
:102934000001be002e00900008ff07000000e00028
:1029440049013a002e00900060009000be00900003
:1029540000017800110009008280d8008000fd0089
:10296400ae0090006004b000614078000080fb007d
:10297400400798003e0090000000e80030079800ef
:102984002e00900030199000c01990002e00900085
:1029940060009000be009000000278001100090061
:1029a4008480d8008000eb0002004000838048004f
:1029b4000001be002e009000e8fe07000000e000c9
:1029c4002b013a002e00900060009000be009000a1
:1029d40000017800110009008280d8008000fd0009
:1029e400ae0090006004b000614078000080fb00fd
:1029f4004800dd00ce009000010070004007980000
:102a04002e08900061006000004078000004e0009f
:102a1400040032004e0090004400de008000eb0011
:102a24000d0037004e0090006101b800f0ff200057
:102a34000100200002027800030178008001780080
:102a44008100780003006200810061008105780044
:102a5400000578000a00be00008fbe000b0137009d
:102a64002e009000301c9000c01c90002e0090009e
:102a7400600090000000d1008000eb000001be0067
:102a84002e089000be0890001af7070008004000c6
:102a9400898048000001be002e009000affe0700b0
:102aa4000000e000f4003a002e00900068042000ca
:102ab400000444002e089000be089000000240006c
:102ac400818248002e009000600090008000eb009e
:102ad4000001be000400be0016f7070000007800e5
:102ae400000044006efb07008000eb00008fbe0076
:102af400e60037002e009000301d9000c01d9000ad
:102b04002e009000600090004200de008000eb0088
:102b14000001be002e089000be089000f5f60700e4
:102b24000a0040008b8048000001be002e00900087
:102b34008afe07000000e000d1003a002e00900059
:102b44006a042000000545002e089000be0890008d
:102b5400420add00ce02de00850272004202dd0080
:102b64002e009000600090008000eb000001be0089
:102b74000400be00eff607000000780000004500e6
:102b840057fb07000001be00f0ff2f00f1ff2000fb
:102b94000202780003017800800178008100780047
:102ba4000300620081006100810478000004780061
:102bb400088fbe00b50037001e089000e0009000aa
:102bc400700190008009900050009000e00f5000c8
:102bd400e08f5800e00f5900e08f590006003200e2
:102be4001e089000c000900030009000e00f5000dc
:102bf400e08f580004003a001e08900050409000f6
:102c04000004e00094003a001e089000c000900008
:102c1400300090002e099000be0990000000510081
:102c24008180590050079800610798001e089000a1
:102c340050029000e002900070039000800b90001e
:102c4400f0ff2f00f1ff2f000001be00000442003e
:102c540081844a0002054b0083854b002e009000be
:102c6400600090008000eb006011b8000203be0019
:102c74000002be000800be000a01be0049f70700ba
:102c84000002be002e009000500090008000eb0077
:102c94000001be000400be0096f60700700798000d
:102ca400010f98001e08900050409000e24f500021
:102cb40017003a005e019000ee0190007e00900043
:102cc4008e089000800f5100818f590010003e0043
:102cd4005e019000ee0190007e0090008e0890004e
:102ce400800f5100818f5900050032002e0890009a
:102cf400be08900061004000e080480002003700f8
:102d0400f0ff2f00f1ff2700008fbe005f003700a7
:102d14001e08900050409000e34f50000f003a000e
:102d24001e08900010099000a00990005e00900019
:102d3400ee009000800f5100818f5900070036008b
:102d44002e089000be08900012002000030020000e
:102d5400021f4000039748004c0037001e089000f3
:102d640050409000e24f50003b0032001e0890009b
:102d7400c008900030089000e00f5000e08f580029
:102d840004003200f0ff2f00f1ff2700008fbe0087
:102d94003e0037002e009000301c9000c01c9000b4
:102da4002e009000600090004200de008000eb00e6
:102db4000001be002e089000be0890004df60700ea
:102dc40008004000898048000001be002e009000e9
:102dd400e2fd07000000e0002b003a002e00900006
:102de40068042000000444002e089000be089000ef
:102df400420add00ce02de00850272004202dd00de
:102e04002e009000600090008000eb000001be00e6
:102e14000400be0047f607000000780000004400ec
:102e2400affa07000001be00f0ff2f00f1ff2700fa
:102e340002027800030178008001780081007800a4
:102e440003006200810061008106780000067800ba
:102e54000c8fbe000d003700100020000100200080
:102e6400008fbe0009003700000000000700370093
:102e740000000000050037000000000003003700d8
:102e84000000000001003700000000001e00be002a
:102e94004f06be004f05be004f04be000080fa007e
:102ea400000006001200fa00889fbe008a9fbe0040
:102eb4008c9fbe0030079800420798005307980083
:102ec400640798007507980020002000000f780020
:102ed4004e019000de01900010002000010020004f
:102ee400800f5100818f5900270136003e00900069
:102ef40050119000e01190004e009000de00900010
:102f0400800f5100818f59001f0136003e00900050
:102f1400104078000080fb00e20f50008b0032006c
:102f2400e20f500003003c00e10f500004003200a7
:102f340015013700e40f500013013c00ad003700c9
:102f4400ce009000110798001e0090000000d100f0
:102f54009e00900000804000100798003e00900002
:102f640030199000c01990003e009000600090005d
:102f74009e00900000027800110009008480d800af
:102f84008000eb0002004000838048000001be0086
:102f94003e00900071fd0700000f78001e007800cd
:102fa4000000e000f1003a003e00900061042000bf
:102fb40081004000010f98003e00900060009000e6
:102fc4001e01900080017800110009000381d800df
:102fd4008000fd000e0a90000000420020079800c7
:102fe4001e0090000000e800100798004e009000ba
:102ff40061006000004078000004e0000a00320034
:103004002e00900010407800ef4060006e009000a9
:10301400004078000080fb004400dd0000407800a0
:1030240000c07000020037006e009000004078007d
:10303400ae009000804878003e00900011c0b300bc
:10304400314098003e00900030199000c019900063
:103054003e009000600090009e0090000002780006
:10306400110009008480d8008000eb0002004000b9
:10307400838048000001be003e00900037fd070039
:10308400000f78001e0078000000e000b9003a004c
:103094003e0090006104200081004000010f980070
:1030a4003e009000600090001e01900080017800b6
:1030b400110009000381d8008000fd000e0a900071
:1030c40000004200200798004e009000610060005c
:1030d400004078000004e000080032006e00900018
:1030e400fe0090004c09dd004400de000000710089
:1030f400c408de00004078000e0037002e00900067
:10310400104078008040780000cfb30000c1600018
:103114006e009000fe009000c809dd004800de004b
:1031240000807100c808de00004078006f40600035
:1031340000407100ae009000804878003e0090008e
:1031440011c0b300314098008f0037003e0090005a
:10315400301c9000c01c90003e0090006000900065
:103164000000d1008000eb000001be004e00900082
:10317400de0090005ff507000800400089804800e9
:103184000001be003e009000f4fc0700000f780030
:103194001e0078000000e00078003a006e04900001
:1031a4003e00900069042000808444004e0090009a
:1031b400de00900000024000818248003e00900042
:1031c400600090008000eb000001be000400be001f
:1031d40058f507000000780000804400880078005b
:1031e400abfa07003e00900011c0b30031409800d4
:1031f400650037003e009000301e9000c01e900015
:103204003e009000600090004200de008000eb0071
:103214000001be004e009000de00900035f507006e
:103224000c0040008d8048000001be003e0090006c
:10323400cafc0700000f78001e0078000000e000c0
:1032440050003a003e00900010407800e44f5000d7
:103254002e0032006e019000fe019000f0ff2f005e
:10326400f1ff200002027800030178008001780059
:10327400810078000300620081006100810578000c
:10328400000578003e0090006c0420000006460013
:103294004e009000de009000420add00ce02de0007
:1032a400850272004202dd003e0090006000900042
:1032b4008000eb000001be000400be001df5070005
:1032c400000078000000460085f907000001be00f8
:1032d4000000200001002f000202780003017800a2
:1032e40080017800810078000300620081006100a1
:1032f40081047800000478000800be000000750016
:103304008180750060079800710798003e00900066
:1033140068042000000444004e009000de00900089
:10332400420add00ce02de00850272004202dd00a8
:103334003e009000600090008000eb000001be00a1
:103344000400be00fbf40700000078000000440005
:103354006e019000fe0190005ffa07003e009000ad
:1033640011c0b3003140980007003700000000008e
:1033740005003700000000000300370000000000d3
:1033840001003700000000001e0078004f06be0058
:103394004f05be004f04be000080fa000000060086
:1033a4001c00fa00889fbe00100f9800220f98009e
:1033b400330f9800440f9800550f98002e08900082
:1033c400be08900062005000e0805800200f980072
:1033d400310f98001e089000e010900050109000eb
:1033e40062015000e08158002e089000be08900051
:1033f400800f5100818f590003003e006000b80027
:10340400200f9800310f98002e099000be099000fb
:1034140022079800330798002e019000be01900007
:1034240042079800530798006000b80060079800ae
:10343400710798001e089000701c90008024900072
:103444002e009000be009000c30ade00cd09dd000e
:103454004302de00048271001e08900060009000a8
:103464008000eb000001be000400be00a1f40700d0
:1034740008004000898048000001be001e0890003a
:1034840036fc07000000e000030032000080eb007f
:103494008080eb00660037002e009000be00900094
:1034a400c30ade004d09dd004302de0004027100a0
:1034b4001e089000600090008000eb000001be0038
:1034c4000400be009bf40700100798002e00900033
:1034d40067006000110020000008dd00004f780044
:1034e4009e0890001e0090006004b00061407800c7
:1034f4001e406000005798001e40780000404000c5
:10350400004f78002e009000be0090006100400043
:10351400e080480020079800310798001e089000ba
:10352400e01090005010900062005000e0805800bd
:103534002e019000be019000800f5100818f590030
:10354400080039006000b80020079800310798008f
:103554000040eb00004f78001e089000e00190004e
:10356400130798000e5090000004e00012003a0087
:103574006e009000fe00900061004000e080480072
:1035840060079800710798006e019000fe0190009a
:103594004e089000de089000800f5100818f590082
:1035a4000c003a004e009000de00900062004000e3
:1035b400e08048001e0037002e019000be019000fc
:1035c40042079800530798006000b800600798000d
:1035d400710798002e019000be0190002e08900003
:1035e400be089000800f5100818f590002003a00fc
:1035f4006000b8000e0037001e4078000004e000b0
:10360400b7ff3a0010c0b300004f78001e009000ce
:103614000000e800100798001e0890006000900069
:103624009e009000808f5000adff390081ff37006d
:103634004f04be000080fa00000006001400fa00e7
:10364400889fbe00400798005207980063079800bf
:1036540074079800050f9800110f98005e00900001
:10366400ee00900062005000e0805800500798007f
:10367400610798004e009000701c90008024900018
:103684005e009000ee009000c30ade004d09dd00ec
:103694004302de00040271004e00900060009000be
:1036a4008000eb000001be000400be0011f407001e
:1036b40008004000898048002007980031079800de
:1036c4005e009000ee009000c30ade004d09dd00ac
:1036d4004302de00040271004e009000600090007e
:1036e4008000eb000001be000400be0011f40700de
:1036f400100798005e009000670060001100200031
:103704000008dd00004f78002e009000be009000fd
:103714002e019000be01900061014100e08149004a
:1037240022079800330798000001be004e00900065
:103734008afb07000000e0000200320010002000b5
:103744003b003700ce0090001e0090006004b000e3
:10375400614078001e4060000080fb000000ea0029
:103764004f00de00800078001e089000808f50001b
:1037740002003a00200020002d003700ce00900007
:103784001e0090006004b000614078009e40680014
:103794004e0190001e009000000041006004b00043
:1037a400014878004e00900011c0b30031409800e9
:1037b4007e0090008e08900061005000e080580068
:1037c40070079800010f98007e0090008e0890000a
:1037d400e00f5000e08f580002003a000000eb00b8
:1037e400130037001e40780000404000004f78006e
:1037f4001e4078000004e000d2ff3a0010c0b3007d
:10380400004f78001e0090000000e80010079800a8
:103814004e009000600090009e009000808f500049
:10382400c8ff39000000eb0010079800b6ff37000e
:103834004f04be000080fa00000006000c00fa00ed
:10384400500798005e00900050409000e34f5000f5
:103854002c003a005e00900030019000c0019000fe
:10386400028fbe005e00900010099000a009900035
:1038740022079800330798001a003700120020002e
:10388400030020003e004100ae8049005e0190002c
:10389400120378000002be001e01be00060078007c
:1038a40080fd0700400798004e0090000000e000f3
:1038b400020032004e009000130037001200200076
:1038c400030020001e0f41005e9749002e00900067
:1038d400be00900061005000e0805800200798006e
:1038e400310798002e009000be009000e00f5000b9
:1038f400e08f5800e1ff3a005e0090008040eb004a
:10390400514098000000eb000080fa00000006001f
:103914000c00fa001007980022079800330798005b
:103924004407980055079800300037001e009000a7
:1039340030099000c0099000100020000100200010
:10394400800f5100818f59000a0036001e0090003c
:10395400c0089000300890002e019000be01900035
:10396400000051008180590062004000e08048005e
:10397400020037004e009000de0090001e0190000f
:10398400c2099000320990002e029000be029000fd
:103994000201520083815a0061014100e081490023
:1039a4001e029000140378000002be000600780096
:1039b4003cfd0700000f78001e0078000000e000c6
:1039c400020032001e0078000f0037001e00900035
:1039d400c00890003008900061005000e08058005a
:1039e4001e01900030099800410998001e009000c3
:1039f400c008900030089000e00f5000e08f58009d
:103a0400caff3a000000eb000080fa000000060044
:103a14001a00fa00000f9800120f9800230f980064
:103a2400340f9800450f98000000eb004007980001
:103a34000e08900090007800510798001e0990002d
:103a4400ae099000028fbe001e099000ae099000de
:103a540022079800330798001e099000ae099000d1
:103a64001000200001002000800f5100818f5900b8
:103a7400080036005e00900050119000e0119000a4
:103a84001e089000ae089000800f5100818f5900ed
:103a940002003e0020002000060137003e0890008e
:103aa400ce089000e00f5000e08f58001400320060
:103ab4005e00900010407800e44f500004003a008b
:103ac4000e08900050409000e24f50000c0032006d
:103ad4000082eb008082eb003e099000ce0990004a
:103ae4005e009000effc0700400798004e00900035
:103af4000000e000020032004e009000ed003700ac
:103b04001e099000ae0990000e08900046fb0700c5
:103b140060079800710798006e009000fe00900006
:103b2400e00f5000e08f5800720032006e019000e8
:103b3400fe0190001000200001002000800f5100c1
:103b4400818f590002003a0020002000d90037007c
:103b54006e019000fe0190000080eb008080eb007d
:103b6400800f5100818f590002003a00100020009c
:103b7400d00037005e00900010407800e44f500001
:103b84000b0032006022b8001e099000ae099000bc
:103b94005e009000c3fc0700400798004e009000b0
:103ba4000000e000020032004e009000c100370027
:103bb4005e00900030099000c00990005e00900003
:103bc400e01090005010900062005000e080580017
:103bd400800f5100818f59000e0031005e0090006b
:103be400c00890003008900061004000e080480068
:103bf4005e01900030099800410998005e00900031
:103c040040409000804078000104a0005e009000d5
:103c1400414098002e009000be00900061014000d9
:103c2400e08148006e009000fe009000800f51007b
:103c3400818f590005003a006e019000fe0190004a
:103c440022079800330798001d0037005e0090009b
:103c540010407800e44f500012003a002e0090000b
:103c6400be0090003e015000ae8158000200be002c
:103c740061014000e08148008000eb000202be00c8
:103c84001e01be005e0090006cfe07004007980015
:103c94004e0090000000e000020032004e00900050
:103ca400840037006e019000fe0190002207980006
:103cb400330798002e019000be019000028fbe00d1
:103cc4006e019000fe019000120f9800230f9800df
:103cd4005e00900050119000e01190001e089000ca
:103ce400ae089000800f5100818f590084ff3e0080
:103cf40001003700000000005e00900010407800d2
:103d0400e44f50006a003a003e089000ce0890004c
:103d1400e00f5000e08f580004003a000e089000b5
:103d24008040eb0051409800610037000e0890007d
:103d3400504090000004e00041003a000e0890005a
:103d440030019000c0019000120f9800230f9800da
:103d5400270037001e099000ae0990000e0890005d
:103d6400b1fa070060079800710798006e0190008f
:103d7400fe0190001000200001002000800f51007f
:103d8400818f590002003e002000200049003700c6
:103d94006e019000fe0190000080eb008080eb003b
:103da400800f5100818f590002003a00100020005a
:103db400400037001e089000ae08900061014000ea
:103dc400e08148006e009000fe009000800f5100da
:103dd400818f59000e003a001e089000ae08900032
:103de40061004000e0804800100f9800210f980007
:103df4001e099000ae0990003e089000ce08900085
:103e0400800f5100818f5900d2ff3a000100370022
:103e1400000000001e099000ae0990003e089000ca
:103e2400ce089000800f5100818f590020003a0085
:103e34000e08900021c0b300514098001c003700c8
:103e44000e08900050409000e34f500018003a00d4
:103e54000e08900030019000c00190003e089000d0
:103e6400ce089000800f5100818f590010003e0051
:103e74000e08900030019000c00190000e089000e0
:103e8400a0089000100890000201400083814800bf
:103e94003e089000ce089000800f5100818f590099
:103ea400030039000e08900021c0b300514098006f
:103eb4000000eb000080fa00000006001600fa0083
:103ec400000f9800120f9800230f98000e0890001e
:103ed40090007800510798001e089000ae089000ea
:103ee400e00f5000e08f580017003a005e00900089
:103ef40010099000a0099000220798003307980049
:103f04002e009000be009000e00f5000e08f58009b
:103f1400080032005e00900050119000e011900003
:103f24002e009000be009000800f5100818f590038
:103f34002e003e0010002000010020002007980001
:103f440031079800290037001e099000ae0990003f
:103f54000e08900034fa0700600798007107980073
:103f64006e019000fe01900010002000010020006e
:103f7400800f5100818f590003003e001000200083
:103f840001002000710137006e019000fe019000d5
:103f94000080eb008080eb00800f5100818f59007e
:103fa40003003a006e009000fe00900067013700a5
:103fb4005e00900050119000e01190006e0090009f
:103fc400fe009000800f5100818f590003003600dd
:103fd4006e009000fe0090005c0137001e09900006
:103fe400ae09900022079800330798005e00900005
:103ff400c008900030089000e00f5000e08f580097
:1040040002003a006000b800500137005e009000e2
:1040140010407800e44f50007e003a001400200065
:10402400050020002e019000be0190005e0090006b
:10403400dbfc0700008fbe001e00be00e00f500036
:10404400e08f5800060032001e01be000080eb0025
:104054008080eb00800f5100818f590002003a00ec
:104064001e00be003901370011002000140020009a
:10407400050020001e01be005e0090006ffd0700d9
:10408400400798004e009000e20f500003003a00f1
:1040940010002000010020002c0137004e00900089
:1040a400e10f500003003a000080eb008080eb0039
:1040b400260137001e089000ae089000e00f500063
:1040c400e08f580004003a000e08900021c0b300ad
:1040d40051409800180037000e089000504090009e
:1040e400e24f500014003a002e009000be009000f1
:1040f40061004000e0804800be0f5000ae8f5800c1
:104104000d0032000e089000c000900030009000b6
:104114002e019000be0190000000510081805900e2
:104124000e09900010099800210998000e089000cb
:1041340031c0b300514098000e08900050409000e8
:10414400e24f5000d60032001e089000ae089000e6
:1041540061004000e0804800be0f5000ae8f580060
:1041640012003a000e089000c00890003008900039
:10417400e00f5000e08f5800060032000e08900057
:10418400c00890003008900061004000e0804800c2
:104194000200370020002000010020000e099000da
:1041a4003009980041099800bd0037000e089000be
:1041b400c008900030089000e00f5000e08f5800d5
:1041c40005003a000e0990001000200001002000b4
:1041d40030099800410998001e02be001e09900093
:1041e400ae0990000e089000c9fd07004007980032
:1041f4004e0090000000e000a9003a000e09900073
:1042040010002000010020003009980041099800a6
:10421400a30037006000b800008fbe002e0190009c
:10422400be0190001e089000ae089000800f51005f
:10423400818f590044003a002e009000be00900087
:104244001200200003002000021f400003974800d2
:104254005e009000e010900050109000be0f5000df
:10426400ae8f580003003e00200020000100200013
:10427400008fbe001e01be000e0890006af9070000
:1042840060079800710798006e019000fe0190008d
:104294001000200001002000800f5100818f590080
:1042a400070032006e019000fe0190000080eb00d8
:1042b4008080eb00800f5100818f590003003a0089
:1042c4006e009000fe009000a00037006e00900089
:1042d400fe009000e00f5000e08f58001a003200fa
:1042e4005e00900010099000a009900062079800f9
:1042f400730798006e019000fe01900010002000ea
:1043040001002000800f5100818f59000c003600fd
:104314005e00900050119000e01190006e0090003b
:10432400fe009000800f5100818f59000400360078
:104334006e019000fe019000220798003307980058
:104344006000b800008fbe001e00be00e00f5000e9
:10435400e08f58003e003a002e019000be0190000c
:10436400028fbe0001003700000000001200200090
:10437400030020001e0f41005e9749005e0090007c
:10438400e010900050109000be0f5000ae8f580007
:104394000b003e002000200001002000008fbe0022
:1043a4002e009000be0090001e01be00800f510040
:1043b400818f5900020036006000b80063003700a6
:1043c4001e01be000e08900017f907006007980050
:1043d400710798006e009000fe009000e00f5000fe
:1043e400e08f5800190032006e019000fe01900029
:1043f4001000200001002000800f5100818f59001f
:10440400070032006e019000fe0190000080eb0076
:104414008080eb00800f5100818f590003003a0027
:104424006e009000fe009000480037002e009000bf
:10443400be0090001e01be00800f5100818f590004
:10444400c9ff3a006000b8004000370000000000d7
:104454000082eb008082eb001e01be005e00900033
:1044640090fa0700400798004e0090000000e0001a
:104474000b003a001e089000ae089000e00f5000b8
:10448400e08f5800060032001e02be001e09900094
:10449400ae0990005e00900082fa07004007980081
:1044a4004e0090000000e0001e003a005e00900004
:1044b4001e01be0012089800230898005e009000b8
:1044c40030099000c00990005e009000e010900058
:1044d4005010900062005000e0805800800f51009e
:1044e400818f590008003e005e009000c0089000d3
:1044f4003008900061005000e08058005e01900098
:1045040030099800410998005e00900040409000f6
:10451400804078000104a0005e00900041409800b3
:10452400090037004e009000e10f500003003a00ec
:104534000080eb008080eb000200370010002000b8
:1045440001002000008fbe001e00be000080fa00a3
:10455400000006001000fa00500798006207980057
:10456400730798005e009000b8f707000000e000b1
:104574000200320010002000360037006e01900067
:10458400fe0190005e0090007cf807001007980080
:10459400210798005e0090001e019000ae0190007b
:1045a40012209800232098005e009000e000900004
:1045b4005e0090006004b000010178008000eb0010
:1045c400c0f607005e0090006004b0003007980059
:1045d40010002000400798000000eb00000f780056
:1045e400020037004e0090001e0f40005e00900055
:1045f400500090009e0f50000f0036001e007800ff
:104604006101b8001e009000ae009000020040005e
:10461400838048005e019000924290004e02900018
:104624000001be00be00900005407800cf3a0700ac
:104634000000e000ebff32005e00900050009000ac
:104644001e00680000f0a7000000ea000000ea0075
:104654004f00de000080fa00000006001000fa009f
:10466400889fbe005007980062079800730798005f
:104674005e00900090007800210798002e009000c2
:1046840010407800e44f500003003a00000020007e
:104694000100210002003700000020000102200078
:1046a4006e019000fe019000820f5000838f58002d
:1046b4000a0036006e009000fe00900000007800b2
:1046c4007f0060008002eb00000278000400be005e
:1046d400e00f5000e08f580002003200200020005c
:1046e4009e0037005e0090006e019000fe01900075
:1046f40032109800431098005e0090003001900042
:10470400c0019000028fbe001e00be00e00f5000ea
:10471400e08f58000b003a002e0090001040780003
:10472400e24f5000070036002e0090005019900010
:10473400e0199000028fbe005e0090008040eb0004
:10474400514098001e00be00e00f5000e08f58005a
:1047540015003a006e009000fe009000c509de00ce
:104764004b0add004501de00020172002e009000bc
:10477400400090008000eb00800f5100818f5900b1
:104784000200390020002000740037002e00900041
:10479400e0189000501890005e019000701198008d
:1047a40001199800420037002e009000500090003c
:1047b4006101b8002e009000600090008000eb00c2
:1047c400009ab90004027800028bb90086027800ce
:1047d400050242000010b800010242008400780083
:1047e4003007980041079800300798004107980067
:1047f400220037005e0090001e01be000af8070088
:10480400008fbe001e01be000080eb008080eb0024
:10481400800f5100818f590002003a0010002000df
:104824004e0037001e01be001000200001002000d1
:10483400800f5100818f5900060036002e00900031
:10484400e010900050109000be0f5000ae8f580042
:1048540002003e0020002000400037006e0190005e
:10486400fe0190003e009000ce0090000000510038
:104874008180590060079800710798006e019000cc
:10488400fe0190003e009000ce009000800f510089
:10489400818f5900d7ff31001e01be002e00900009
:1048a400b6f707005e019000701198000119980096
:1048b4005e0090001e01be00521098006310980024
:1048c4005e0090008018900070109000e00f50007f
:1048d400e08f580002003a00200020001f0037003b
:1048e4005e00900070149000801c90002e009000d8
:1048f400600090008000eb000001be006e0090009c
:10490400fe0090007bef070008004000898048000b
:104914005e01900070119800011998002e0090001b
:1049240068042000000444002e0090006000900001
:104934008000eb006e029000fe0290000001be00b9
:104944000400be007bef07000000780080004400f4
:104954005e009000111898000000eb004f04be00a8
:104964000080fa00000006000e00fa00889fbe00d6
:1049740050079800610798005e009000900078004e
:10498400210798005e009000c01090003010900045
:104994000002b0000180b000300798004107980081
:1049a4005e0090008018900070109000e00f50009e
:1049b400e08f58000e0032002e0090001040780066
:1049c400e44f500003003a000000200001002100e1
:1049d4000200370000002000010220003e01900088
:1049e400ce019000820f5000838f580002003e00d9
:1049f40040002000b40037002e00900060009000ba
:104a04008000eb003e029000ce0290000001be0048
:104a14000400be0047ef0700e00f5000e08f58008d
:104a240094003a005e00900080189000701090008e
:104a340061004000e08048005e0190007011980021
:104a4400011998005e009000e01090005010900052
:104a5400e00f5000e08f580012003a003e00900032
:104a6400ce009000c509de004b0add004501de00e2
:104a7400020172002e009000400090008000eb00c4
:104a8400800f5100818f59007a0039005e01900037
:104a94006000b800701198000119980040002000cf
:104aa400890037002e009000600090008000eb0029
:104ab4000001be003e009000ce0090000def070004
:104ac4000001be002e009000500090000000e9009c
:104ad4008000eb0002027800030178008001780076
:104ae4008100780003006200810061008104780085
:104af400000478000800be00e00f5000e08f58006a
:104b04005c003a005e009000e010900050109000ad
:104b14005e0290000001be000400780042f7070026
:104b2400008fbe001e01be00100020000100200006
:104b3400800f5100818f590002003e0020002000a8
:104b4400610037001e01be000080eb008080eb0096
:104b5400800f5100818f590002003a00100020009c
:104b6400590037002e009000e01090005010900083
:104b7400be0f5000ae8f580034003e006e0090000f
:104b84000000e00006003a005e0190006000b800fa
:104b94007011980001199800400020004a00370065
:104ba4005e009000e0109000501090005e029000b3
:104bb4000001be0004007800c0fc0700008fbe00a6
:104bc4001e00be00e00f5000e08f580002003a00c3
:104bd400700020003c0037001e01be0010002000c1
:104be40001002000800f5100818f590002003a001b
:104bf40020002000340037001e01be000080eb00be
:104c04008080eb00800f5100818f590002003a0030
:104c1400100020002c0037001e01be002e00900062
:104c24004cfe07000000e0000200320010002000eb
:104c3400250037005e0090005040900080407800ce
:104c44000124a0005e009000514098005e00900096
:104c54001e01be0052109800631098001e01be0091
:104c64002e009000c5f607005e01900070119800b8
:104c7400011998005e0090003e019000ce01900062
:104c840032109800431098002e0090006804200011
:104c9400000444002e009000600090008000eb00af
:104ca4003e029000ce0290000001be000400be004f
:104cb400a0ee070000007800800044005e00900031
:104cc400111898000000eb004f04be000080fa00a9
:104cd400000006000a00fa00300798004107980017
:104ce4003e00900090007800210798006011b80001
:104cf4003e00900059fe0700000f78001e00780067
:104d04000000e0003b003a000000eb0010079800b0
:104d14003e00900080189000701090000001be00ca
:104d24002e0090000df60700000f78001e0078009a
:104d34000000e0002e003a002e00900010407800a1
:104d4400e44f500008003a003e0090001018900014
:104d54001040780000c0ea000080fb004700de003d
:104d6400004078000e0037003e00900010189000bc
:104d740010407800fb4f4000050032003e009000d8
:104d840010189000104078000004e00002003a007f
:104d940010002000010037000000eb000040780004
:104da4000004e000080032001e0090000000e8004b
:104db400100798009e0090004e009000808f5000d5
:104dc40003003a000b0037000000eb0010079800c6
:104dd400110020003e009000e3fe0700000f780061
:104de4001e0078000000e000c9ff32000100370017
:104df400000000001e007800e40f500002003a009a
:104e040070002000000f78001e0078000080fa0077
:104e1400000006000800fa002007980031079800f7
:104e24003e0090007a0040009df207008000eb00f5
:104e3400008fbe002e00900010407800e34f500019
:104e440008003a003e0090007400400094f207000d
:104e54008000eb00c000dd00000020001e1f700079
:104e64001e9770001e00be000080fa0000000600bd
:104e74000800fa00000f7800110798002207980034
:104e840033079800ae0090001e0090007a004000a6
:104e94007ff307001e00780010407800e34f5000b5
:104ea40007003a002e009000be0090004008de008b
:104eb400800078001e0090007400400074f3070026
:104ec4000080fa00000006000c00fa00889fbe0073
:104ed40040079800510798005e0090007a00400057
:104ee4006ff207000000e000020032000000eb0057
:104ef400510037005e009000104078008080fb0075
:104f0400f0032000008060000000e9006d00b9009b
:104f140000007800000f780010002000200798009f
:104f24000000eb00100798002c00370061a3280054
:104f34001e00900000804000104078000080fb00bc
:104f4400de0090000080400055f207003007980012
:104f54002e0090000000e00018003200e00f200056
:104f64009e007800808f50000f003e003e009000ad
:104f74008000eb00003707000004be001e0078002c
:104f840000004000ce009000008040001000780037
:104f94008000eb001e0fe800f7360700800f540076
:104fa400818f5c00020032000000eb002200370019
:104fb400be00900021079800050037003e009000d5
:104fc400e10f4000020032000000eb001a0037003d
:104fd4001e0090000000e800100798001e009000da
:104fe400ec0f5000d1ff36005e00900010407800b6
:104ff4008080fb0000042000008060000000e000ce
:105004000c0032002e0090000000e0000900320085
:105014001e00780000004000ce0090000080400098
:10502400100078000000e000020032000000eb00f5
:1050340001003700100020004f04be000080fa0079
:10504400000006000c00fa00400798005107980081
:105054005e0090007a00400011f207000000e000ba
:10506400020032000000eb00480037005e009000b0
:10507400104078000080fb000060a1000000e900ff
:105084006d00b90000007800000f780010002000c7
:10509400200798000000eb00100798002400370058
:1050a40061a328001e00900000804000104078009a
:1050b4000080fb00de00900000804000f8f1070053
:1050c400300798002e0090000000e000100032002d
:1050d400e00f20009e007800808f50000200360010
:1050e4000000eb00290037001e007800000040009b
:1050f400ce00900000804000be0090002107980080
:10510400ae009000010878001e0fe800050037008b
:105114003e009000e10f4000020032000000eb006e
:105124001a0037001e0090000000e80010079800e5
:105134001e009000ec0f5000d9ff36005e00900076
:10514400104078008080fb00000420000080600094
:105154000000e0000c003200e00f20009e00780008
:10516400808f5000020036000000eb00070037007b
:105174001e00780000004000ce0090000080400037
:105184008000eb0001087800100020000080fa0085
:10519400000006000c00fa00300798004107980050
:1051a400224f9800334f98004e0090006d0040004d
:1051b400be489000014878004e0090006b0040000b
:1051c400f1c0b300014878004e0090006c0040002c
:1051d4008040eb00014878004e0090007a004000c7
:1051e4008000eb00aaf207002e4890000080fb002c
:1051f4000000e9006d00b90000007800000f78009d
:105204000000eb00200798000000eb001007980056
:105214002e009000e10f4000070032001e007800cd
:1052240000004000be009000008040009000780024
:10523400210798001e0fe80061a328001e009000bb
:1052440000804000104078000080fb00ce009000f9
:1052540000804000ae0090008df207002e00900008
:105264000000e00002003a000080eb0020079800f4
:105274001e0090000000e800100798001e00900037
:10528400ec0f5000e2ff36002e009000e10f4000ca
:10529400070032001e00780000004000be009000ad
:1052a40000804000100078000000e00003003a0095
:1052b4002e4890000064a000204f98004e009000fb
:1052c400ae489000014878000080fa000000060013
:1052d4001c00fa00889fbe008a9fbe00200f980021
:1052e400310f9800420f9800530f9800b20020002d
:1052f400be0890002e08900057f307005e08900047
:10530400e50f5000440036005e0890008000eb007a
:105314004007980051079800390037004e08900064
:1053240090007800310798004e0890000080e80053
:10533400400f98000000eb00100798002d00370084
:105344004e009000de009000000140008181480082
:105354003e0090008000eb000000780061006000d7
:105364008004eb00000478000800be000200400046
:105374008380480040079800510798003e00900041
:105384000000d100300798004e019000de0190002b
:1053940000002000110020000202780003017800c0
:1053a40080017800810078000300620081006100c0
:1053b40081057800000578000a00be00e00f500067
:1053c400e08f5800080032004e019000de0190008a
:1053d4001002210011002000000069008180690092
:1053e40040079800510798001e0090000000e80054
:1053f400100798001e009000ef0f5000d0ff3600f9
:105404004e089000100078000000e000c3ff3a004e
:10541400ce009000510f98007000200010079800f3
:105424005e089000004078006f40600001c3b30044
:10543400014f400090c3b3009e40780080cf5000dd
:10544400020036009e40780067cf4000ec00470021
:105454001e009000008040001e4878001e0090004e
:105464000000e900100798005e0890004400de0088
:10547400500f98005e0890000000e000e8ff3a003a
:10548400ec0047001e00900000804000e1c7b3001c
:10549400014878000000eb00200798001200370054
:1054a400ae0890002e00900000804000104078006c
:1054b4004df307000000e000080032001e009000d9
:1054c4008000e9002e009000808f5000120032000e
:1054d4002e0090000000e800200798002e009000a5
:1054e4000000e80020079800ae0090001e00900025
:1054f400808f500009003100ae0890002e0090000b
:10550400008040009040780000c2b30080cf50007b
:10551400e3ff3a000100370000000000ae089000ed
:105524002e009000808040001e009000e70f500085
:1055340008003e006c0147001e009000000041007e
:10554400104078001e0190000201e8001207980044
:105554000100370000c2b300804878002e0090009c
:105564000000e800200798002e009000e70f50008c
:10557400eaff36004f05be004f04be000080fa006b
:10558400000006000600fa00200798000040eb0027
:10559400004f7800b0002000100798001e407800eb
:1055a400c700dd000080fb000000d10080c0700057
:1055b4002e0090001040780000cf40002e00900094
:1055c4000000e800200798001e0090000000e90099
:1055d400100798001e0090000000e000efff3a0062
:1055e4001e4078000080fa00000006000800fa005f
:1055f400300798003e0090000000e800104078005a
:105604000080fb000000e8004500dd002007980052
:105614000000eb00100798000000eb00000f78007a
:10562400170037001e007800e20f500002003a0015
:105634001e0fe800110037001e009000610060009a
:10564400004078000004e00002003200000028005e
:10565400010037000000eb009e0090008100d100a3
:10566400810040003e0090001e0040001040780081
